{
  "contractName": "StormSwap",
  "abi": [
    {
      "inputs": [
        {
          "internalType": "address",
          "name": "_swarmNGN",
          "type": "address"
        },
        {
          "internalType": "string",
          "name": "_orderurl",
          "type": "string"
        },
        {
          "internalType": "string",
          "name": "_rateurl",
          "type": "string"
        },
        {
          "internalType": "address",
          "name": "_oracle",
          "type": "address"
        },
        {
          "internalType": "string",
          "name": "_tran_jobId",
          "type": "string"
        },
        {
          "internalType": "string",
          "name": "_NGN_jobId",
          "type": "string"
        }
      ],
      "stateMutability": "nonpayable",
      "type": "constructor"
    },
    {
      "anonymous": false,
      "inputs": [
        {
          "indexed": true,
          "internalType": "bytes32",
          "name": "id",
          "type": "bytes32"
        }
      ],
      "name": "ChainlinkCancelled",
      "type": "event"
    },
    {
      "anonymous": false,
      "inputs": [
        {
          "indexed": true,
          "internalType": "bytes32",
          "name": "id",
          "type": "bytes32"
        }
      ],
      "name": "ChainlinkFulfilled",
      "type": "event"
    },
    {
      "anonymous": false,
      "inputs": [
        {
          "indexed": true,
          "internalType": "bytes32",
          "name": "id",
          "type": "bytes32"
        }
      ],
      "name": "ChainlinkRequested",
      "type": "event"
    },
    {
      "anonymous": false,
      "inputs": [
        {
          "indexed": true,
          "internalType": "address",
          "name": "previousOwner",
          "type": "address"
        },
        {
          "indexed": true,
          "internalType": "address",
          "name": "newOwner",
          "type": "address"
        }
      ],
      "name": "OwnershipTransferred",
      "type": "event"
    },
    {
      "anonymous": false,
      "inputs": [
        {
          "indexed": false,
          "internalType": "string",
          "name": "Transaction_id",
          "type": "string"
        },
        {
          "indexed": false,
          "internalType": "address",
          "name": "Transaction_sender",
          "type": "address"
        },
        {
          "indexed": false,
          "internalType": "address",
          "name": "token",
          "type": "address"
        },
        {
          "indexed": false,
          "internalType": "uint256",
          "name": "amount",
          "type": "uint256"
        },
        {
          "indexed": false,
          "internalType": "string",
          "name": "message",
          "type": "string"
        }
      ],
      "name": "Transactionfailed",
      "type": "event"
    },
    {
      "inputs": [],
      "name": "NGN_jobId",
      "outputs": [
        {
          "internalType": "bytes32",
          "name": "",
          "type": "bytes32"
        }
      ],
      "stateMutability": "view",
      "type": "function",
      "constant": true
    },
    {
      "inputs": [],
      "name": "NGNrateurl",
      "outputs": [
        {
          "internalType": "string",
          "name": "",
          "type": "string"
        }
      ],
      "stateMutability": "view",
      "type": "function",
      "constant": true
    },
    {
      "inputs": [
        {
          "internalType": "uint256",
          "name": "",
          "type": "uint256"
        }
      ],
      "name": "allTransactionID",
      "outputs": [
        {
          "internalType": "string",
          "name": "",
          "type": "string"
        }
      ],
      "stateMutability": "view",
      "type": "function",
      "constant": true
    },
    {
      "inputs": [
        {
          "internalType": "string",
          "name": "",
          "type": "string"
        }
      ],
      "name": "allTransactions",
      "outputs": [
        {
          "internalType": "uint256",
          "name": "id",
          "type": "uint256"
        },
        {
          "internalType": "string",
          "name": "Transaction_id",
          "type": "string"
        },
        {
          "internalType": "address",
          "name": "Transaction_sender",
          "type": "address"
        },
        {
          "internalType": "address",
          "name": "token",
          "type": "address"
        },
        {
          "internalType": "uint256",
          "name": "amount",
          "type": "uint256"
        },
        {
          "internalType": "bool",
          "name": "confirmed",
          "type": "bool"
        },
        {
          "internalType": "string",
          "name": "message",
          "type": "string"
        }
      ],
      "stateMutability": "view",
      "type": "function",
      "constant": true
    },
    {
      "inputs": [
        {
          "internalType": "address",
          "name": "",
          "type": "address"
        }
      ],
      "name": "allowedTokens",
      "outputs": [
        {
          "internalType": "address",
          "name": "token_add",
          "type": "address"
        },
        {
          "internalType": "bool",
          "name": "allowed",
          "type": "bool"
        },
        {
          "internalType": "uint256",
          "name": "price",
          "type": "uint256"
        }
      ],
      "stateMutability": "view",
      "type": "function",
      "constant": true
    },
    {
      "inputs": [
        {
          "internalType": "uint256",
          "name": "",
          "type": "uint256"
        }
      ],
      "name": "allowedTokensIndexForLooop",
      "outputs": [
        {
          "internalType": "address",
          "name": "",
          "type": "address"
        }
      ],
      "stateMutability": "view",
      "type": "function",
      "constant": true
    },
    {
      "inputs": [],
      "name": "countAllTransactions",
      "outputs": [
        {
          "internalType": "uint256",
          "name": "",
          "type": "uint256"
        }
      ],
      "stateMutability": "view",
      "type": "function",
      "constant": true
    },
    {
      "inputs": [],
      "name": "countAllowedTokens",
      "outputs": [
        {
          "internalType": "uint256",
          "name": "",
          "type": "uint256"
        }
      ],
      "stateMutability": "view",
      "type": "function",
      "constant": true
    },
    {
      "inputs": [],
      "name": "countTokenPriceFeedMapping",
      "outputs": [
        {
          "internalType": "uint256",
          "name": "",
          "type": "uint256"
        }
      ],
      "stateMutability": "view",
      "type": "function",
      "constant": true
    },
    {
      "inputs": [],
      "name": "currentNGN_rate",
      "outputs": [
        {
          "internalType": "uint256",
          "name": "",
          "type": "uint256"
        }
      ],
      "stateMutability": "view",
      "type": "function",
      "constant": true
    },
    {
      "inputs": [],
      "name": "fee",
      "outputs": [
        {
          "internalType": "uint256",
          "name": "",
          "type": "uint256"
        }
      ],
      "stateMutability": "view",
      "type": "function",
      "constant": true
    },
    {
      "inputs": [],
      "name": "name",
      "outputs": [
        {
          "internalType": "string",
          "name": "",
          "type": "string"
        }
      ],
      "stateMutability": "view",
      "type": "function",
      "constant": true
    },
    {
      "inputs": [],
      "name": "oracle",
      "outputs": [
        {
          "internalType": "address",
          "name": "",
          "type": "address"
        }
      ],
      "stateMutability": "view",
      "type": "function",
      "constant": true
    },
    {
      "inputs": [],
      "name": "orderurl",
      "outputs": [
        {
          "internalType": "string",
          "name": "",
          "type": "string"
        }
      ],
      "stateMutability": "view",
      "type": "function",
      "constant": true
    },
    {
      "inputs": [],
      "name": "owner",
      "outputs": [
        {
          "internalType": "address",
          "name": "",
          "type": "address"
        }
      ],
      "stateMutability": "view",
      "type": "function",
      "constant": true
    },
    {
      "inputs": [],
      "name": "payouturl",
      "outputs": [
        {
          "internalType": "string",
          "name": "",
          "type": "string"
        }
      ],
      "stateMutability": "view",
      "type": "function",
      "constant": true
    },
    {
      "inputs": [],
      "name": "point_level",
      "outputs": [
        {
          "internalType": "uint256",
          "name": "",
          "type": "uint256"
        }
      ],
      "stateMutability": "view",
      "type": "function",
      "constant": true
    },
    {
      "inputs": [],
      "name": "renounceOwnership",
      "outputs": [],
      "stateMutability": "nonpayable",
      "type": "function"
    },
    {
      "inputs": [],
      "name": "swapOwner",
      "outputs": [
        {
          "internalType": "address",
          "name": "",
          "type": "address"
        }
      ],
      "stateMutability": "view",
      "type": "function",
      "constant": true
    },
    {
      "inputs": [],
      "name": "swarmNGN",
      "outputs": [
        {
          "internalType": "contract IERC20",
          "name": "",
          "type": "address"
        }
      ],
      "stateMutability": "view",
      "type": "function",
      "constant": true
    },
    {
      "inputs": [],
      "name": "swarmNGN_add",
      "outputs": [
        {
          "internalType": "address",
          "name": "",
          "type": "address"
        }
      ],
      "stateMutability": "view",
      "type": "function",
      "constant": true
    },
    {
      "inputs": [],
      "name": "test_order_id",
      "outputs": [
        {
          "internalType": "string",
          "name": "",
          "type": "string"
        }
      ],
      "stateMutability": "view",
      "type": "function",
      "constant": true
    },
    {
      "inputs": [
        {
          "internalType": "address",
          "name": "",
          "type": "address"
        }
      ],
      "name": "tokenPriceFeedMapping",
      "outputs": [
        {
          "internalType": "address",
          "name": "",
          "type": "address"
        }
      ],
      "stateMutability": "view",
      "type": "function",
      "constant": true
    },
    {
      "inputs": [],
      "name": "tran_jobId",
      "outputs": [
        {
          "internalType": "bytes32",
          "name": "",
          "type": "bytes32"
        }
      ],
      "stateMutability": "view",
      "type": "function",
      "constant": true
    },
    {
      "inputs": [
        {
          "internalType": "address",
          "name": "newOwner",
          "type": "address"
        }
      ],
      "name": "transferOwnership",
      "outputs": [],
      "stateMutability": "nonpayable",
      "type": "function"
    },
    {
      "inputs": [
        {
          "internalType": "string",
          "name": "_orderurl",
          "type": "string"
        },
        {
          "internalType": "string",
          "name": "_rateurl",
          "type": "string"
        },
        {
          "internalType": "address",
          "name": "_oracle",
          "type": "address"
        },
        {
          "internalType": "string",
          "name": "_tran_jobId",
          "type": "string"
        },
        {
          "internalType": "string",
          "name": "_NGN_jobId",
          "type": "string"
        },
        {
          "internalType": "uint256",
          "name": "_fee",
          "type": "uint256"
        }
      ],
      "name": "updateAPI_para",
      "outputs": [],
      "stateMutability": "nonpayable",
      "type": "function"
    },
    {
      "inputs": [
        {
          "internalType": "address",
          "name": "token",
          "type": "address"
        }
      ],
      "name": "addAllowedTokens",
      "outputs": [],
      "stateMutability": "nonpayable",
      "type": "function"
    },
    {
      "inputs": [
        {
          "internalType": "address",
          "name": "token",
          "type": "address"
        },
        {
          "internalType": "address",
          "name": "priceFeed",
          "type": "address"
        }
      ],
      "name": "setPriceFeedContract",
      "outputs": [],
      "stateMutability": "nonpayable",
      "type": "function"
    },
    {
      "inputs": [
        {
          "internalType": "string",
          "name": "orderID",
          "type": "string"
        },
        {
          "internalType": "address",
          "name": "_token",
          "type": "address"
        },
        {
          "internalType": "uint256",
          "name": "_amount",
          "type": "uint256"
        }
      ],
      "name": "sendToken",
      "outputs": [],
      "stateMutability": "nonpayable",
      "type": "function"
    },
    {
      "inputs": [],
      "name": "collectToken",
      "outputs": [],
      "stateMutability": "nonpayable",
      "type": "function"
    },
    {
      "inputs": [
        {
          "internalType": "uint256",
          "name": "_amount",
          "type": "uint256"
        },
        {
          "internalType": "address",
          "name": "_token",
          "type": "address"
        },
        {
          "internalType": "string",
          "name": "orderID",
          "type": "string"
        }
      ],
      "name": "buyToken",
      "outputs": [],
      "stateMutability": "nonpayable",
      "type": "function"
    },
    {
      "inputs": [
        {
          "internalType": "string",
          "name": "_orderid",
          "type": "string"
        }
      ],
      "name": "requestStatus",
      "outputs": [
        {
          "internalType": "bytes32",
          "name": "requestId",
          "type": "bytes32"
        }
      ],
      "stateMutability": "nonpayable",
      "type": "function"
    },
    {
      "inputs": [
        {
          "internalType": "bytes32",
          "name": "_requestId",
          "type": "bytes32"
        },
        {
          "internalType": "bytes32",
          "name": "_status_code",
          "type": "bytes32"
        }
      ],
      "name": "fulfill",
      "outputs": [],
      "stateMutability": "nonpayable",
      "type": "function"
    },
    {
      "inputs": [],
      "name": "requestNGNRate",
      "outputs": [
        {
          "internalType": "bytes32",
          "name": "requestId",
          "type": "bytes32"
        }
      ],
      "stateMutability": "nonpayable",
      "type": "function"
    },
    {
      "inputs": [
        {
          "internalType": "bytes32",
          "name": "_requestId",
          "type": "bytes32"
        },
        {
          "internalType": "uint256",
          "name": "_rateNGN",
          "type": "uint256"
        }
      ],
      "name": "fulfillRate",
      "outputs": [],
      "stateMutability": "nonpayable",
      "type": "function"
    },
    {
      "inputs": [
        {
          "internalType": "address",
          "name": "token",
          "type": "address"
        }
      ],
      "name": "getTokenUSDPrice",
      "outputs": [
        {
          "internalType": "uint256",
          "name": "",
          "type": "uint256"
        }
      ],
      "stateMutability": "view",
      "type": "function",
      "constant": true
    },
    {
      "inputs": [
        {
          "internalType": "bytes32",
          "name": "_bytes32",
          "type": "bytes32"
        }
      ],
      "name": "bytes32ToString",
      "outputs": [
        {
          "internalType": "string",
          "name": "",
          "type": "string"
        }
      ],
      "stateMutability": "pure",
      "type": "function",
      "constant": true
    },
    {
      "inputs": [
        {
          "internalType": "string",
          "name": "source",
          "type": "string"
        }
      ],
      "name": "stringToBytes32",
      "outputs": [
        {
          "internalType": "bytes32",
          "name": "result",
          "type": "bytes32"
        }
      ],
      "stateMutability": "pure",
      "type": "function",
      "constant": true
    },
    {
      "inputs": [
        {
          "internalType": "string",
          "name": "a",
          "type": "string"
        },
        {
          "internalType": "string",
          "name": "b",
          "type": "string"
        }
      ],
      "name": "comparestrings",
      "outputs": [
        {
          "internalType": "bool",
          "name": "",
          "type": "bool"
        }
      ],
      "stateMutability": "pure",
      "type": "function",
      "constant": true
    },
    {
      "inputs": [],
      "name": "withdrawLink",
      "outputs": [],
      "stateMutability": "nonpayable",
      "type": "function"
    },
    {
      "inputs": [
        {
          "internalType": "address",
          "name": "_token",
          "type": "address"
        }
      ],
      "name": "withdrawToken",
      "outputs": [],
      "stateMutability": "nonpayable",
      "type": "function"
    }
  ],
  "bytecode": "0x6080604052600160045560405180606001604052806021815260200162005b6c60219139601190805190602001906200003a92919062000977565b5060006015556000601c556000601d553480156200005757600080fd5b5060405162005b8d38038062005b8d833981810160405260c08110156200007d57600080fd5b810190808051906020019092919080516040519392919084640100000000821115620000a857600080fd5b83820191506020820185811115620000bf57600080fd5b8251866001820283011164010000000082111715620000dd57600080fd5b8083526020830192505050908051906020019080838360005b8381101562000113578082015181840152602081019050620000f6565b50505050905090810190601f168015620001415780820380516001836020036101000a031916815260200191505b50604052602001805160405193929190846401000000008211156200016557600080fd5b838201915060208201858111156200017c57600080fd5b82518660018202830111640100000000821117156200019a57600080fd5b8083526020830192505050908051906020019080838360005b83811015620001d0578082015181840152602081019050620001b3565b50505050905090810190601f168015620001fe5780820380516001836020036101000a031916815260200191505b5060405260200180519060200190929190805160405193929190846401000000008211156200022c57600080fd5b838201915060208201858111156200024357600080fd5b82518660018202830111640100000000821117156200026157600080fd5b8083526020830192505050908051906020019080838360005b83811015620002975780820151818401526020810190506200027a565b50505050905090810190601f168015620002c55780820380516001836020036101000a031916815260200191505b5060405260200180516040519392919084640100000000821115620002e957600080fd5b838201915060208201858111156200030057600080fd5b82518660018202830111640100000000821117156200031e57600080fd5b8083526020830192505050908051906020019080838360005b838110156200035457808201518184015260208101905062000337565b50505050905090810190601f168015620003825780820380516001836020036101000a031916815260200191505b5060405250505060006200039b620005da60201b60201c565b905080600660006101000a81548173ffffffffffffffffffffffffffffffffffffffff021916908373ffffffffffffffffffffffffffffffffffffffff1602179055508073ffffffffffffffffffffffffffffffffffffffff16600073ffffffffffffffffffffffffffffffffffffffff167f8be0079c531659141344cd1fd0a4f28419497f9722a3daafe3b4186f6b6457e060405160405180910390a3506200044a620005e260201b60201c565b85601260006101000a81548173ffffffffffffffffffffffffffffffffffffffff021916908373ffffffffffffffffffffffffffffffffffffffff16021790555085601360006101000a81548173ffffffffffffffffffffffffffffffffffffffff021916908373ffffffffffffffffffffffffffffffffffffffff1602179055508460089080519060200190620004e492919062000977565b5083600a9080519060200190620004fd92919062000977565b5082600b60006101000a81548173ffffffffffffffffffffffffffffffffffffffff021916908373ffffffffffffffffffffffffffffffffffffffff16021790555062000550826200068c60201b60201c565b600c8190555062000567816200068c60201b60201c565b600d8190555067016345785d8a0000600e8190555033600760006101000a81548173ffffffffffffffffffffffffffffffffffffffff021916908373ffffffffffffffffffffffffffffffffffffffff160217905550620005ce86620006b960201b60201c565b50505050505062000a26565b600033905090565b6200068a73c89bd4e1632d3a43cb03aaad5262cbe4038bc57173ffffffffffffffffffffffffffffffffffffffff166338cc48316040518163ffffffff1660e01b815260040160206040518083038186803b1580156200064157600080fd5b505afa15801562000656573d6000803e3d6000fd5b505050506040513d60208110156200066d57600080fd5b81019080805190602001909291905050506200093360201b60201c565b565b60006060829050600081511415620006ab576000801b915050620006b4565b60208301519150505b919050565b620006c9620005da60201b60201c565b73ffffffffffffffffffffffffffffffffffffffff16600660009054906101000a900473ffffffffffffffffffffffffffffffffffffffff1673ffffffffffffffffffffffffffffffffffffffff16146200078c576040517f08c379a00000000000000000000000000000000000000000000000000000000081526004018080602001828103825260208152602001807f4f776e61626c653a2063616c6c6572206973206e6f7420746865206f776e657281525060200191505060405180910390fd5b601a60008273ffffffffffffffffffffffffffffffffffffffff1673ffffffffffffffffffffffffffffffffffffffff16815260200190815260200160002060000160149054906101000a900460ff16620009305760405180606001604052808273ffffffffffffffffffffffffffffffffffffffff1681526020016001151581526020016000815250601a60008373ffffffffffffffffffffffffffffffffffffffff1673ffffffffffffffffffffffffffffffffffffffff16815260200190815260200160002060008201518160000160006101000a81548173ffffffffffffffffffffffffffffffffffffffff021916908373ffffffffffffffffffffffffffffffffffffffff16021790555060208201518160000160146101000a81548160ff02191690831515021790555060408201518160010155905050601c6000815480929190600101919050555080601b6000601c54815260200190815260200160002060006101000a81548173ffffffffffffffffffffffffffffffffffffffff021916908373ffffffffffffffffffffffffffffffffffffffff1602179055505b50565b80600260006101000a81548173ffffffffffffffffffffffffffffffffffffffff021916908373ffffffffffffffffffffffffffffffffffffffff16021790555050565b828054600181600116156101000203166002900490600052602060002090601f016020900481019282601f10620009ba57805160ff1916838001178555620009eb565b82800160010185558215620009eb579182015b82811115620009ea578251825591602001919060010190620009cd565b5b509050620009fa9190620009fe565b5090565b62000a2391905b8082111562000a1f57600081600090555060010162000a05565b5090565b90565b6151368062000a366000396000f3fe608060405234801561001057600080fd5b50600436106102535760003560e01c806380baa6bb11610146578063ca56cd3b116100c3578063e744092e11610087578063e744092e14611482578063eaf0d4af14611518578063efb24cab14611550578063f133f7df1461156e578063f2fde38b1461158c578063f6d8b28b146115d057610253565b8063ca56cd3b146112ea578063cc4cc05f1461136d578063cfb5192814611377578063d11117b614611446578063ddca3f431461146457610253565b80639201de551161010a5780639201de5514610f5057806394818cae14610ff75780639a8b05b31461107a5780639dedd333146110fd578063b142c4dd1461118057610253565b806380baa6bb14610baa578063877dd39d14610e545780638947606914610eb85780638da5cb5b14610efc5780638dc654a214610f4657610253565b80634585ed22116101d4578063715018a611610198578063715018a6146108ab57806372b46e29146108b5578063746e64a5146108d35780637d7f56c2146109415780637dc0d1d014610b6057610253565b80634585ed22146105aa5780634ad16656146105f45780634bfd2b55146106d957806353e2790f146107be5780636bd850761461088d57610253565b806329d66ade1161021b57806329d66ade146104825780632e94b4c5146104a05780633c4c9dd7146104f85780633f9f21ca1461054257806343dd3c911461056057610253565b8063042f2b651461025857806306fdde031461029057806309f34cf414610313578063171e44ea146103ba57806327927b3e146103fe575b600080fd5b61028e6004803603604081101561026e57600080fd5b8101908080359060200190929190803590602001909291905050506115ee565b005b610298611ad7565b6040518080602001828103825283818151815260200191508051906020019080838360005b838110156102d85780820151818401526020810190506102bd565b50505050905090810190601f1680156103055780820380516001836020036101000a031916815260200191505b509250505060405180910390f35b61033f6004803603602081101561032957600080fd5b8101908080359060200190929190505050611b75565b6040518080602001828103825283818151815260200191508051906020019080838360005b8381101561037f578082015181840152602081019050610364565b50505050905090810190601f1680156103ac5780820380516001836020036101000a031916815260200191505b509250505060405180910390f35b6103fc600480360360208110156103d057600080fd5b81019080803573ffffffffffffffffffffffffffffffffffffffff169060200190929190505050611c25565b005b6104406004803603602081101561041457600080fd5b81019080803573ffffffffffffffffffffffffffffffffffffffff169060200190929190505050611e95565b604051808273ffffffffffffffffffffffffffffffffffffffff1673ffffffffffffffffffffffffffffffffffffffff16815260200191505060405180910390f35b61048a611ec8565b6040518082815260200191505060405180910390f35b6104e2600480360360208110156104b657600080fd5b81019080803573ffffffffffffffffffffffffffffffffffffffff169060200190929190505050611ece565b6040518082815260200191505060405180910390f35b61050061200f565b604051808273ffffffffffffffffffffffffffffffffffffffff1673ffffffffffffffffffffffffffffffffffffffff16815260200191505060405180910390f35b61054a612035565b6040518082815260200191505060405180910390f35b61056861203b565b604051808273ffffffffffffffffffffffffffffffffffffffff1673ffffffffffffffffffffffffffffffffffffffff16815260200191505060405180910390f35b6105b2612061565b604051808273ffffffffffffffffffffffffffffffffffffffff1673ffffffffffffffffffffffffffffffffffffffff16815260200191505060405180910390f35b6106d76004803603606081101561060a57600080fd5b810190808035906020019064010000000081111561062757600080fd5b82018360208201111561063957600080fd5b8035906020019184600183028401116401000000008311171561065b57600080fd5b91908080601f016020809104026020016040519081016040528093929190818152602001838380828437600081840152601f19601f820116905080830192505050505050509192919290803573ffffffffffffffffffffffffffffffffffffffff16906020019092919080359060200190929190505050612087565b005b6107bc600480360360608110156106ef57600080fd5b8101908080359060200190929190803573ffffffffffffffffffffffffffffffffffffffff1690602001909291908035906020019064010000000081111561073657600080fd5b82018360208201111561074857600080fd5b8035906020019184600183028401116401000000008311171561076a57600080fd5b91908080601f016020809104026020016040519081016040528093929190818152602001838380828437600081840152601f19601f820116905080830192505050505050509192919290505050612822565b005b610877600480360360208110156107d457600080fd5b81019080803590602001906401000000008111156107f157600080fd5b82018360208201111561080357600080fd5b8035906020019184600183028401116401000000008311171561082557600080fd5b91908080601f016020809104026020016040519081016040528093929190818152602001838380828437600081840152601f19601f820116905080830192505050505050509192919290505050612b98565b6040518082815260200191505060405180910390f35b610895612d69565b6040518082815260200191505060405180910390f35b6108b3612d6f565b005b6108bd612efa565b6040518082815260200191505060405180910390f35b6108ff600480360360208110156108e957600080fd5b8101908080359060200190929190505050612f00565b604051808273ffffffffffffffffffffffffffffffffffffffff1673ffffffffffffffffffffffffffffffffffffffff16815260200191505060405180910390f35b6109fa6004803603602081101561095757600080fd5b810190808035906020019064010000000081111561097457600080fd5b82018360208201111561098657600080fd5b803590602001918460018302840111640100000000831117156109a857600080fd5b91908080601f016020809104026020016040519081016040528093929190818152602001838380828437600081840152601f19601f820116905080830192505050505050509192919290505050612f33565b60405180888152602001806020018773ffffffffffffffffffffffffffffffffffffffff1673ffffffffffffffffffffffffffffffffffffffff1681526020018673ffffffffffffffffffffffffffffffffffffffff1673ffffffffffffffffffffffffffffffffffffffff1681526020018581526020018415151515815260200180602001838103835289818151815260200191508051906020019080838360005b83811015610ab8578082015181840152602081019050610a9d565b50505050905090810190601f168015610ae55780820380516001836020036101000a031916815260200191505b50838103825284818151815260200191508051906020019080838360005b83811015610b1e578082015181840152602081019050610b03565b50505050905090810190601f168015610b4b5780820380516001836020036101000a031916815260200191505b50995050505050505050505060405180910390f35b610b68613108565b604051808273ffffffffffffffffffffffffffffffffffffffff1673ffffffffffffffffffffffffffffffffffffffff16815260200191505060405180910390f35b610e52600480360360c0811015610bc057600080fd5b8101908080359060200190640100000000811115610bdd57600080fd5b820183602082011115610bef57600080fd5b80359060200191846001830284011164010000000083111715610c1157600080fd5b91908080601f016020809104026020016040519081016040528093929190818152602001838380828437600081840152601f19601f82011690508083019250505050505050919291929080359060200190640100000000811115610c7457600080fd5b820183602082011115610c8657600080fd5b80359060200191846001830284011164010000000083111715610ca857600080fd5b91908080601f016020809104026020016040519081016040528093929190818152602001838380828437600081840152601f19601f820116905080830192505050505050509192919290803573ffffffffffffffffffffffffffffffffffffffff16906020019092919080359060200190640100000000811115610d2b57600080fd5b820183602082011115610d3d57600080fd5b80359060200191846001830284011164010000000083111715610d5f57600080fd5b91908080601f016020809104026020016040519081016040528093929190818152602001838380828437600081840152601f19601f82011690508083019250505050505050919291929080359060200190640100000000811115610dc257600080fd5b820183602082011115610dd457600080fd5b80359060200191846001830284011164010000000083111715610df657600080fd5b91908080601f016020809104026020016040519081016040528093929190818152602001838380828437600081840152601f19601f8201169050808301925050505050505091929192908035906020019092919050505061312e565b005b610eb660048036036040811015610e6a57600080fd5b81019080803573ffffffffffffffffffffffffffffffffffffffff169060200190929190803573ffffffffffffffffffffffffffffffffffffffff169060200190929190505050613294565b005b610efa60048036036020811015610ece57600080fd5b81019080803573ffffffffffffffffffffffffffffffffffffffff1690602001909291905050506133e0565b005b610f04613698565b604051808273ffffffffffffffffffffffffffffffffffffffff1673ffffffffffffffffffffffffffffffffffffffff16815260200191505060405180910390f35b610f4e6136c2565b005b610f7c60048036036020811015610f6657600080fd5b8101908080359060200190929190505050613986565b6040518080602001828103825283818151815260200191508051906020019080838360005b83811015610fbc578082015181840152602081019050610fa1565b50505050905090810190601f168015610fe95780820380516001836020036101000a031916815260200191505b509250505060405180910390f35b610fff613afa565b6040518080602001828103825283818151815260200191508051906020019080838360005b8381101561103f578082015181840152602081019050611024565b50505050905090810190601f16801561106c5780820380516001836020036101000a031916815260200191505b509250505060405180910390f35b611082613b98565b6040518080602001828103825283818151815260200191508051906020019080838360005b838110156110c25780820151818401526020810190506110a7565b50505050905090810190601f1680156110ef5780820380516001836020036101000a031916815260200191505b509250505060405180910390f35b611105613c36565b6040518080602001828103825283818151815260200191508051906020019080838360005b8381101561114557808201518184015260208101905061112a565b50505050905090810190601f1680156111725780820380516001836020036101000a031916815260200191505b509250505060405180910390f35b6112d06004803603604081101561119657600080fd5b81019080803590602001906401000000008111156111b357600080fd5b8201836020820111156111c557600080fd5b803590602001918460018302840111640100000000831117156111e757600080fd5b91908080601f016020809104026020016040519081016040528093929190818152602001838380828437600081840152601f19601f8201169050808301925050505050505091929192908035906020019064010000000081111561124a57600080fd5b82018360208201111561125c57600080fd5b8035906020019184600183028401116401000000008311171561127e57600080fd5b91908080601f016020809104026020016040519081016040528093929190818152602001838380828437600081840152601f19601f820116905080830192505050505050509192919290505050613cd4565b604051808215151515815260200191505060405180910390f35b6112f2613d00565b6040518080602001828103825283818151815260200191508051906020019080838360005b83811015611332578082015181840152602081019050611317565b50505050905090810190601f16801561135f5780820380516001836020036101000a031916815260200191505b509250505060405180910390f35b611375613d9e565b005b6114306004803603602081101561138d57600080fd5b81019080803590602001906401000000008111156113aa57600080fd5b8201836020820111156113bc57600080fd5b803590602001918460018302840111640100000000831117156113de57600080fd5b91908080601f016020809104026020016040519081016040528093929190818152602001838380828437600081840152601f19601f820116905080830192505050505050509192919290505050613da0565b6040518082815260200191505060405180910390f35b61144e613dcb565b6040518082815260200191505060405180910390f35b61146c613dd1565b6040518082815260200191505060405180910390f35b6114c46004803603602081101561149857600080fd5b81019080803573ffffffffffffffffffffffffffffffffffffffff169060200190929190505050613dd7565b604051808473ffffffffffffffffffffffffffffffffffffffff1673ffffffffffffffffffffffffffffffffffffffff16815260200183151515158152602001828152602001935050505060405180910390f35b61154e6004803603604081101561152e57600080fd5b810190808035906020019092919080359060200190929190505050613e2e565b005b611558613fbe565b6040518082815260200191505060405180910390f35b6115766141ce565b6040518082815260200191505060405180910390f35b6115ce600480360360208110156115a257600080fd5b81019080803573ffffffffffffffffffffffffffffffffffffffff1690602001909291905050506141d4565b005b6115d86143e4565b6040518082815260200191505060405180910390f35b816005600082815260200190815260200160002060009054906101000a900473ffffffffffffffffffffffffffffffffffffffff1673ffffffffffffffffffffffffffffffffffffffff163373ffffffffffffffffffffffffffffffffffffffff16146116a6576040517f08c379a00000000000000000000000000000000000000000000000000000000081526004018080602001828103825260288152602001806150ad6028913960400191505060405180910390fd5b6005600082815260200190815260200160002060006101000a81549073ffffffffffffffffffffffffffffffffffffffff0219169055807f7cc135e0cebb02c3480ae5d74d377283180a2601f8f644edf7987b009316c63a60405160405180910390a261171282613986565b601e9080519060200190611727929190614ec5565b50606061173383613986565b9050600260108190555060006014826040518082805190602001908083835b602083106117755780518252602082019150602081019050602083039250611752565b6001836020036101000a038019825116818451168082178552505050505050905001915050908152602001604051809103902060030160009054906101000a900473ffffffffffffffffffffffffffffffffffffffff1690506000809050600260108190555060006014846040518082805190602001908083835b6020831061181357805182526020820191506020810190506020830392506117f0565b6001836020036101000a038019825116818451168082178552505050505050905001915050908152602001604051809103902060040154905061188b846040518060400160405280600181526020017f3000000000000000000000000000000000000000000000000000000000000000815250613cd4565b156119bd577f54ca82d30b33d4158b5a563c619090facad364e783ae3b8bce1c7d49f5a4aa6f8433858460405180806020018573ffffffffffffffffffffffffffffffffffffffff1673ffffffffffffffffffffffffffffffffffffffff1681526020018473ffffffffffffffffffffffffffffffffffffffff1673ffffffffffffffffffffffffffffffffffffffff16815260200183815260200180602001838103835287818151815260200191508051906020019080838360005b83811015611963578082015181840152602081019050611948565b50505050905090810190601f1680156119905780820380516001836020036101000a031916815260200191505b508381038252602381526020018061505c60239139604001965050505050505060405180910390a1611ace565b6003601081905550601360009054906101000a900473ffffffffffffffffffffffffffffffffffffffff1673ffffffffffffffffffffffffffffffffffffffff168373ffffffffffffffffffffffffffffffffffffffff161415611a4b576004601081905550670de0b6b3a7640000600f54820281611a3857fe5b049150611a46848484612087565b611acd565b60046010819055506000809050611a6184611ece565b905080601a60008673ffffffffffffffffffffffffffffffffffffffff1673ffffffffffffffffffffffffffffffffffffffff1681526020019081526020016000206001018190555080670de0b6b3a7640000830281611abd57fe5b049250611acb858585612087565b505b5b50505050505050565b60118054600181600116156101000203166002900480601f016020809104026020016040519081016040528092919081815260200182805460018160011615610100020316600290048015611b6d5780601f10611b4257610100808354040283529160200191611b6d565b820191906000526020600020905b815481529060010190602001808311611b5057829003601f168201915b505050505081565b60166020528060005260406000206000915090508054600181600116156101000203166002900480601f016020809104026020016040519081016040528092919081815260200182805460018160011615610100020316600290048015611c1d5780601f10611bf257610100808354040283529160200191611c1d565b820191906000526020600020905b815481529060010190602001808311611c0057829003601f168201915b505050505081565b611c2d6143ea565b73ffffffffffffffffffffffffffffffffffffffff16600660009054906101000a900473ffffffffffffffffffffffffffffffffffffffff1673ffffffffffffffffffffffffffffffffffffffff1614611cef576040517f08c379a00000000000000000000000000000000000000000000000000000000081526004018080602001828103825260208152602001807f4f776e61626c653a2063616c6c6572206973206e6f7420746865206f776e657281525060200191505060405180910390fd5b601a60008273ffffffffffffffffffffffffffffffffffffffff1673ffffffffffffffffffffffffffffffffffffffff16815260200190815260200160002060000160149054906101000a900460ff16611e925760405180606001604052808273ffffffffffffffffffffffffffffffffffffffff1681526020016001151581526020016000815250601a60008373ffffffffffffffffffffffffffffffffffffffff1673ffffffffffffffffffffffffffffffffffffffff16815260200190815260200160002060008201518160000160006101000a81548173ffffffffffffffffffffffffffffffffffffffff021916908373ffffffffffffffffffffffffffffffffffffffff16021790555060208201518160000160146101000a81548160ff02191690831515021790555060408201518160010155905050601c6000815480929190600101919050555080601b6000601c54815260200190815260200160002060006101000a81548173ffffffffffffffffffffffffffffffffffffffff021916908373ffffffffffffffffffffffffffffffffffffffff1602179055505b50565b60196020528060005260406000206000915054906101000a900473ffffffffffffffffffffffffffffffffffffffff1681565b600d5481565b600080601960008473ffffffffffffffffffffffffffffffffffffffff1673ffffffffffffffffffffffffffffffffffffffff16815260200190815260200160002060009054906101000a900473ffffffffffffffffffffffffffffffffffffffff169050600081905060008060008060008573ffffffffffffffffffffffffffffffffffffffff1663feaf968c6040518163ffffffff1660e01b815260040160a06040518083038186803b158015611f8657600080fd5b505afa158015611f9a573d6000803e3d6000fd5b505050506040513d60a0811015611fb057600080fd5b8101908080519060200190929190805190602001909291908051906020019092919080519060200190929190805190602001909291905050509450945094509450945060006402540be400850290508098505050505050505050919050565b600760009054906101000a900473ffffffffffffffffffffffffffffffffffffffff1681565b60105481565b601260009054906101000a900473ffffffffffffffffffffffffffffffffffffffff1681565b601360009054906101000a900473ffffffffffffffffffffffffffffffffffffffff1681565b60056010819055506000811115612766578173ffffffffffffffffffffffffffffffffffffffff166370a08231306040518263ffffffff1660e01b8152600401808273ffffffffffffffffffffffffffffffffffffffff1673ffffffffffffffffffffffffffffffffffffffff16815260200191505060206040518083038186803b15801561211557600080fd5b505afa158015612129573d6000803e3d6000fd5b505050506040513d602081101561213f57600080fd5b81019080805190602001909291905050508110156126c757601a60008373ffffffffffffffffffffffffffffffffffffffff1673ffffffffffffffffffffffffffffffffffffffff16815260200190815260200160002060000160149054906101000a900460ff16156126285760066010819055506014836040518082805190602001908083835b602083106121ea57805182526020820191506020810190506020830392506121c7565b6001836020036101000a038019825116818451168082178552505050505050905001915050908152602001604051809103902060050160009054906101000a900460ff166125895760076010819055508173ffffffffffffffffffffffffffffffffffffffff1663a9059cbb6014856040518082805190602001908083835b6020831061228c5780518252602082019150602081019050602083039250612269565b6001836020036101000a038019825116818451168082178552505050505050905001915050908152602001604051809103902060020160009054906101000a900473ffffffffffffffffffffffffffffffffffffffff16836040518363ffffffff1660e01b8152600401808373ffffffffffffffffffffffffffffffffffffffff1673ffffffffffffffffffffffffffffffffffffffff16815260200182815260200192505050602060405180830381600087803b15801561234d57600080fd5b505af1158015612361573d6000803e3d6000fd5b505050506040513d602081101561237757600080fd5b8101908080519060200190929190505050156124cd5760016014846040518082805190602001908083835b602083106123c557805182526020820191506020810190506020830392506123a2565b6001836020036101000a038019825116818451168082178552505050505050905001915050908152602001604051809103902060050160006101000a81548160ff0219169083151502179055506040518060400160405280601e81526020017f546865207472616e73616374696f6e20776173207375636365737366756c00008152506014846040518082805190602001908083835b6020831061247e578051825260208201915060208101905060208303925061245b565b6001836020036101000a038019825116818451168082178552505050505050905001915050908152602001604051809103902060060190805190602001906124c7929190614ec5565b50612584565b6040518060400160405280602081526020017f546865207472616e73616374696f6e2077617320756e7375636365737366756c8152506014846040518082805190602001908083835b602083106125395780518252602082019150602081019050602083039250612516565b6001836020036101000a03801982511681845116808217855250505050505090500191505090815260200160405180910390206006019080519060200190612582929190614ec5565b505b612623565b6040518060600160405280602c81526020016150d5602c91396014846040518082805190602001908083835b602083106125d857805182526020820191506020810190506020830392506125b5565b6001836020036101000a03801982511681845116808217855250505050505090500191505090815260200160405180910390206006019080519060200190612621929190614ec5565b505b6126c2565b60405180606001604052806021815260200161503b602191396014846040518082805190602001908083835b602083106126775780518252602082019150602081019050602083039250612654565b6001836020036101000a038019825116818451168082178552505050505050905001915050908152602001604051809103902060060190805190602001906126c0929190614ec5565b505b612761565b6040518060600160405280602e815260200161507f602e91396014846040518082805190602001908083835b6020831061271657805182526020820191506020810190506020830392506126f3565b6001836020036101000a0380198251168184511680821785525050505050509050019150509081526020016040518091039020600601908051906020019061275f929190614ec5565b505b61281d565b6040518060400160405280601581526020017f416d6f756e742043616e6e6f74206265207a65726f00000000000000000000008152506014846040518082805190602001908083835b602083106127d257805182526020820191506020810190506020830392506127af565b6001836020036101000a0380198251168184511680821785525050505050509050019150509081526020016040518091039020600601908051906020019061281b929190614ec5565b505b505050565b6014816040518082805190602001908083835b602083106128585780518252602082019150602081019050602083039250612835565b6001836020036101000a038019825116818451168082178552505050505050905001915050908152602001604051809103902060050160009054906101000a900460ff16612af9576015600081548092919060010191905055506040518060e0016040528060155481526020018281526020013373ffffffffffffffffffffffffffffffffffffffff1681526020018373ffffffffffffffffffffffffffffffffffffffff1681526020018481526020016000151581526020016040518060400160405280601f81526020017f546865207472616e73616374696f6e206973206265696e6720766572696679008152508152506014826040518082805190602001908083835b60208310612981578051825260208201915060208101905060208303925061295e565b6001836020036101000a03801982511681845116808217855250505050505090500191505090815260200160405180910390206000820151816000015560208201518160010190805190602001906129da929190614ec5565b5060408201518160020160006101000a81548173ffffffffffffffffffffffffffffffffffffffff021916908373ffffffffffffffffffffffffffffffffffffffff16021790555060608201518160030160006101000a81548173ffffffffffffffffffffffffffffffffffffffff021916908373ffffffffffffffffffffffffffffffffffffffff1602179055506080820151816004015560a08201518160050160006101000a81548160ff02191690831515021790555060c0820151816006019080519060200190612aaf929190614ec5565b50905050806016600060155481526020019081526020016000209080519060200190612adc929190614ec5565b506001601081905550612aee81612b98565b601781905550612b93565b6040518060600160405280602c81526020016150d5602c91396014826040518082805190602001908083835b60208310612b485780518252602082019150602081019050602083039250612b25565b6001836020036101000a03801982511681845116808217855250505050505090500191505090815260200160405180910390206006019080519060200190612b91929190614ec5565b505b505050565b6000612ba2614f45565b612bb6600c543063042f2b6560e01b6143f2565b90506060612c5e60088054600181600116156101000203166002900480601f016020809104026020016040519081016040528092919081815260200182805460018160011615610100020316600290048015612c535780601f10612c2857610100808354040283529160200191612c53565b820191906000526020600020905b815481529060010190602001808311612c3657829003601f168201915b505050505085614423565b9050612caa6040518060400160405280600381526020017f676574000000000000000000000000000000000000000000000000000000000081525082846144eb9092919063ffffffff16565b612d296040518060400160405280600481526020017f70617468000000000000000000000000000000000000000000000000000000008152506040518060400160405280600b81526020017f7374617475735f636f6465000000000000000000000000000000000000000000815250846144eb9092919063ffffffff16565b6002601081905550612d60600b60009054906101000a900473ffffffffffffffffffffffffffffffffffffffff1683600e5461451e565b92505050919050565b601d5481565b612d776143ea565b73ffffffffffffffffffffffffffffffffffffffff16600660009054906101000a900473ffffffffffffffffffffffffffffffffffffffff1673ffffffffffffffffffffffffffffffffffffffff1614612e39576040517f08c379a00000000000000000000000000000000000000000000000000000000081526004018080602001828103825260208152602001807f4f776e61626c653a2063616c6c6572206973206e6f7420746865206f776e657281525060200191505060405180910390fd5b600073ffffffffffffffffffffffffffffffffffffffff16600660009054906101000a900473ffffffffffffffffffffffffffffffffffffffff1673ffffffffffffffffffffffffffffffffffffffff167f8be0079c531659141344cd1fd0a4f28419497f9722a3daafe3b4186f6b6457e060405160405180910390a36000600660006101000a81548173ffffffffffffffffffffffffffffffffffffffff021916908373ffffffffffffffffffffffffffffffffffffffff160217905550565b601c5481565b601b6020528060005260406000206000915054906101000a900473ffffffffffffffffffffffffffffffffffffffff1681565b601481805160208101820180518482526020830160208501208183528095505050505050600091509050806000015490806001018054600181600116156101000203166002900480601f016020809104026020016040519081016040528092919081815260200182805460018160011615610100020316600290048015612ffb5780601f10612fd057610100808354040283529160200191612ffb565b820191906000526020600020905b815481529060010190602001808311612fde57829003601f168201915b5050505050908060020160009054906101000a900473ffffffffffffffffffffffffffffffffffffffff16908060030160009054906101000a900473ffffffffffffffffffffffffffffffffffffffff16908060040154908060050160009054906101000a900460ff1690806006018054600181600116156101000203166002900480601f0160208091040260200160405190810160405280929190818152602001828054600181600116156101000203166002900480156130fe5780601f106130d3576101008083540402835291602001916130fe565b820191906000526020600020905b8154815290600101906020018083116130e157829003601f168201915b5050505050905087565b600b60009054906101000a900473ffffffffffffffffffffffffffffffffffffffff1681565b6131366143ea565b73ffffffffffffffffffffffffffffffffffffffff16600660009054906101000a900473ffffffffffffffffffffffffffffffffffffffff1673ffffffffffffffffffffffffffffffffffffffff16146131f8576040517f08c379a00000000000000000000000000000000000000000000000000000000081526004018080602001828103825260208152602001807f4f776e61626c653a2063616c6c6572206973206e6f7420746865206f776e657281525060200191505060405180910390fd5b856008908051906020019061320e929190614ec5565b5084600a9080519060200190613225929190614ec5565b5083600b60006101000a81548173ffffffffffffffffffffffffffffffffffffffff021916908373ffffffffffffffffffffffffffffffffffffffff16021790555061327083613da0565b600c8190555061327f82613da0565b600d8190555080600e81905550505050505050565b61329c6143ea565b73ffffffffffffffffffffffffffffffffffffffff16600660009054906101000a900473ffffffffffffffffffffffffffffffffffffffff1673ffffffffffffffffffffffffffffffffffffffff161461335e576040517f08c379a00000000000000000000000000000000000000000000000000000000081526004018080602001828103825260208152602001807f4f776e61626c653a2063616c6c6572206973206e6f7420746865206f776e657281525060200191505060405180910390fd5b80601960008473ffffffffffffffffffffffffffffffffffffffff1673ffffffffffffffffffffffffffffffffffffffff16815260200190815260200160002060006101000a81548173ffffffffffffffffffffffffffffffffffffffff021916908373ffffffffffffffffffffffffffffffffffffffff1602179055505050565b6133e86143ea565b73ffffffffffffffffffffffffffffffffffffffff16600660009054906101000a900473ffffffffffffffffffffffffffffffffffffffff1673ffffffffffffffffffffffffffffffffffffffff16146134aa576040517f08c379a00000000000000000000000000000000000000000000000000000000081526004018080602001828103825260208152602001807f4f776e61626c653a2063616c6c6572206973206e6f7420746865206f776e657281525060200191505060405180910390fd5b8073ffffffffffffffffffffffffffffffffffffffff1663a9059cbb338373ffffffffffffffffffffffffffffffffffffffff166370a08231306040518263ffffffff1660e01b8152600401808273ffffffffffffffffffffffffffffffffffffffff1673ffffffffffffffffffffffffffffffffffffffff16815260200191505060206040518083038186803b15801561354457600080fd5b505afa158015613558573d6000803e3d6000fd5b505050506040513d602081101561356e57600080fd5b81019080805190602001909291905050506040518363ffffffff1660e01b8152600401808373ffffffffffffffffffffffffffffffffffffffff1673ffffffffffffffffffffffffffffffffffffffff16815260200182815260200192505050602060405180830381600087803b1580156135e857600080fd5b505af11580156135fc573d6000803e3d6000fd5b505050506040513d602081101561361257600080fd5b8101908080519060200190929190505050613695576040517f08c379a00000000000000000000000000000000000000000000000000000000081526004018080602001828103825260128152602001807f756e61626c6520746f207472616e73666572000000000000000000000000000081525060200191505060405180910390fd5b50565b6000600660009054906101000a900473ffffffffffffffffffffffffffffffffffffffff16905090565b6136ca6143ea565b73ffffffffffffffffffffffffffffffffffffffff16600660009054906101000a900473ffffffffffffffffffffffffffffffffffffffff1673ffffffffffffffffffffffffffffffffffffffff161461378c576040517f08c379a00000000000000000000000000000000000000000000000000000000081526004018080602001828103825260208152602001807f4f776e61626c653a2063616c6c6572206973206e6f7420746865206f776e657281525060200191505060405180910390fd5b60006137966147d6565b90508073ffffffffffffffffffffffffffffffffffffffff1663a9059cbb338373ffffffffffffffffffffffffffffffffffffffff166370a08231306040518263ffffffff1660e01b8152600401808273ffffffffffffffffffffffffffffffffffffffff1673ffffffffffffffffffffffffffffffffffffffff16815260200191505060206040518083038186803b15801561383257600080fd5b505afa158015613846573d6000803e3d6000fd5b505050506040513d602081101561385c57600080fd5b81019080805190602001909291905050506040518363ffffffff1660e01b8152600401808373ffffffffffffffffffffffffffffffffffffffff1673ffffffffffffffffffffffffffffffffffffffff16815260200182815260200192505050602060405180830381600087803b1580156138d657600080fd5b505af11580156138ea573d6000803e3d6000fd5b505050506040513d602081101561390057600080fd5b8101908080519060200190929190505050613983576040517f08c379a00000000000000000000000000000000000000000000000000000000081526004018080602001828103825260128152602001807f556e61626c6520746f207472616e73666572000000000000000000000000000081525060200191505060405180910390fd5b50565b606060008090505b60208160ff161080156139d95750600060f81b838260ff16602081106139b057fe5b1a60f81b7effffffffffffffffffffffffffffffffffffffffffffffffffffffffffffff191614155b156139eb57808060010191505061398e565b60608160ff1667ffffffffffffffff81118015613a0757600080fd5b506040519080825280601f01601f191660200182016040528015613a3a5781602001600182028036833780820191505090505b509050600091505b60208260ff16108015613a8d5750600060f81b848360ff1660208110613a6457fe5b1a60f81b7effffffffffffffffffffffffffffffffffffffffffffffffffffffffffffff191614155b15613af057838260ff1660208110613aa157fe5b1a60f81b818360ff1681518110613ab457fe5b60200101907effffffffffffffffffffffffffffffffffffffffffffffffffffffffffffff1916908160001a9053508180600101925050613a42565b8092505050919050565b60098054600181600116156101000203166002900480601f016020809104026020016040519081016040528092919081815260200182805460018160011615610100020316600290048015613b905780601f10613b6557610100808354040283529160200191613b90565b820191906000526020600020905b815481529060010190602001808311613b7357829003601f168201915b505050505081565b600a8054600181600116156101000203166002900480601f016020809104026020016040519081016040528092919081815260200182805460018160011615610100020316600290048015613c2e5780601f10613c0357610100808354040283529160200191613c2e565b820191906000526020600020905b815481529060010190602001808311613c1157829003601f168201915b505050505081565b601e8054600181600116156101000203166002900480601f016020809104026020016040519081016040528092919081815260200182805460018160011615610100020316600290048015613ccc5780601f10613ca157610100808354040283529160200191613ccc565b820191906000526020600020905b815481529060010190602001808311613caf57829003601f168201915b505050505081565b6000818051906020012083805190602001201415613cf55760019050613cfa565b600090505b92915050565b60088054600181600116156101000203166002900480601f016020809104026020016040519081016040528092919081815260200182805460018160011615610100020316600290048015613d965780601f10613d6b57610100808354040283529160200191613d96565b820191906000526020600020905b815481529060010190602001808311613d7957829003601f168201915b505050505081565b565b60006060829050600081511415613dbd576000801b915050613dc6565b60208301519150505b919050565b60155481565b600e5481565b601a6020528060005260406000206000915090508060000160009054906101000a900473ffffffffffffffffffffffffffffffffffffffff16908060000160149054906101000a900460ff16908060010154905083565b816005600082815260200190815260200160002060009054906101000a900473ffffffffffffffffffffffffffffffffffffffff1673ffffffffffffffffffffffffffffffffffffffff163373ffffffffffffffffffffffffffffffffffffffff1614613ee6576040517f08c379a00000000000000000000000000000000000000000000000000000000081526004018080602001828103825260288152602001806150ad6028913960400191505060405180910390fd5b6005600082815260200190815260200160002060006101000a81549073ffffffffffffffffffffffffffffffffffffffff0219169055807f7cc135e0cebb02c3480ae5d74d377283180a2601f8f644edf7987b009316c63a60405160405180910390a281600f8190555081601a6000601360009054906101000a900473ffffffffffffffffffffffffffffffffffffffff1673ffffffffffffffffffffffffffffffffffffffff1673ffffffffffffffffffffffffffffffffffffffff16815260200190815260200160002060010181905550505050565b6000613fc8614f45565b613fdc600d543063eaf0d4af60e01b6143f2565b90506140c26040518060400160405280600381526020017f6765740000000000000000000000000000000000000000000000000000000000815250600a8054600181600116156101000203166002900480601f0160208091040260200160405190810160405280929190818152602001828054600181600116156101000203166002900480156140ad5780601f10614082576101008083540402835291602001916140ad565b820191906000526020600020905b81548152906001019060200180831161409057829003601f168201915b5050505050836144eb9092919063ffffffff16565b6141416040518060400160405280600481526020017f70617468000000000000000000000000000000000000000000000000000000008152506040518060400160405280600381526020017f4e474e0000000000000000000000000000000000000000000000000000000000815250836144eb9092919063ffffffff16565b6000670de0b6b3a764000090506141986040518060400160405280600581526020017f74696d657300000000000000000000000000000000000000000000000000000081525082846148009092919063ffffffff16565b6141c7600b60009054906101000a900473ffffffffffffffffffffffffffffffffffffffff1683600e5461451e565b9250505090565b600c5481565b6141dc6143ea565b73ffffffffffffffffffffffffffffffffffffffff16600660009054906101000a900473ffffffffffffffffffffffffffffffffffffffff1673ffffffffffffffffffffffffffffffffffffffff161461429e576040517f08c379a00000000000000000000000000000000000000000000000000000000081526004018080602001828103825260208152602001807f4f776e61626c653a2063616c6c6572206973206e6f7420746865206f776e657281525060200191505060405180910390fd5b600073ffffffffffffffffffffffffffffffffffffffff168173ffffffffffffffffffffffffffffffffffffffff161415614324576040517f08c379a0000000000000000000000000000000000000000000000000000000008152600401808060200182810382526026815260200180614ff26026913960400191505060405180910390fd5b8073ffffffffffffffffffffffffffffffffffffffff16600660009054906101000a900473ffffffffffffffffffffffffffffffffffffffff1673ffffffffffffffffffffffffffffffffffffffff167f8be0079c531659141344cd1fd0a4f28419497f9722a3daafe3b4186f6b6457e060405160405180910390a380600660006101000a81548173ffffffffffffffffffffffffffffffffffffffff021916908373ffffffffffffffffffffffffffffffffffffffff16021790555050565b600f5481565b600033905090565b6143fa614f45565b614402614f45565b61441985858584614833909392919063ffffffff16565b9150509392505050565b606082826040516020018083805190602001908083835b6020831061445d578051825260208201915060208101905060208303925061443a565b6001836020036101000a03801982511681845116808217855250505050505090500182805190602001908083835b602083106144ae578051825260208201915060208101905060208303925061448b565b6001836020036101000a03801982511681845116808217855250505050505090500192505050604051602081830303815290604052905092915050565b6145028284608001516148e390919063ffffffff16565b6145198184608001516148e390919063ffffffff16565b505050565b600030600454604051602001808373ffffffffffffffffffffffffffffffffffffffff1673ffffffffffffffffffffffffffffffffffffffff1660601b815260140182815260200192505050604051602081830303815290604052805190602001209050600454836060018181525050836005600083815260200190815260200160002060006101000a81548173ffffffffffffffffffffffffffffffffffffffff021916908373ffffffffffffffffffffffffffffffffffffffff160217905550807fb5e6e01e79f91267dc17b4e6314d5d4d03593d2ceee0fbb452b750bd70ea5af960405160405180910390a2600260009054906101000a900473ffffffffffffffffffffffffffffffffffffffff1673ffffffffffffffffffffffffffffffffffffffff16634000aea0858461465687614908565b6040518463ffffffff1660e01b8152600401808473ffffffffffffffffffffffffffffffffffffffff1673ffffffffffffffffffffffffffffffffffffffff16815260200183815260200180602001828103825283818151815260200191508051906020019080838360005b838110156146dd5780820151818401526020810190506146c2565b50505050905090810190601f16801561470a5780820380516001836020036101000a031916815260200191505b50945050505050602060405180830381600087803b15801561472b57600080fd5b505af115801561473f573d6000803e3d6000fd5b505050506040513d602081101561475557600080fd5b81019080805190602001909291905050506147bb576040517f08c379a00000000000000000000000000000000000000000000000000000000081526004018080602001828103825260238152602001806150186023913960400191505060405180910390fd5b60016004600082825401925050819055508090509392505050565b6000600260009054906101000a900473ffffffffffffffffffffffffffffffffffffffff16905090565b6148178284608001516148e390919063ffffffff16565b61482e818460800151614ad490919063ffffffff16565b505050565b61483b614f45565b61484b8560800151610100614b20565b508385600001818152505082856020019073ffffffffffffffffffffffffffffffffffffffff16908173ffffffffffffffffffffffffffffffffffffffff16815250508185604001907bffffffffffffffffffffffffffffffffffffffffffffffffffffffff191690817bffffffffffffffffffffffffffffffffffffffffffffffffffffffff191681525050849050949350505050565b6148f08260038351614b74565b6149038183614cb990919063ffffffff16565b505050565b6060634042994660e01b60008084600001518560200151866040015187606001516001896080015160000151604051602401808973ffffffffffffffffffffffffffffffffffffffff1673ffffffffffffffffffffffffffffffffffffffff1681526020018881526020018781526020018673ffffffffffffffffffffffffffffffffffffffff1673ffffffffffffffffffffffffffffffffffffffff168152602001857bffffffffffffffffffffffffffffffffffffffffffffffffffffffff19167bffffffffffffffffffffffffffffffffffffffffffffffffffffffff1916815260200184815260200183815260200180602001828103825283818151815260200191508051906020019080838360005b83811015614a37578082015181840152602081019050614a1c565b50505050905090810190601f168015614a645780820380516001836020036101000a031916815260200191505b509950505050505050505050604051602081830303815290604052907bffffffffffffffffffffffffffffffffffffffffffffffffffffffff19166020820180517bffffffffffffffffffffffffffffffffffffffffffffffffffffffff83818316178352505050509050919050565b60008112614aed57614ae882600083614b74565b614b1c565b614b1b826001837fffffffffffffffffffffffffffffffffffffffffffffffffffffffffffffffff03614b74565b5b5050565b614b28614fb2565b600060208381614b3457fe5b0614614b4d5760208281614b4457fe5b06602003820191505b81836020018181525050604051808452600081528281016020016040525082905092915050565b60178111614ba157614b9b8160058460ff16901b60ff161784614cdb90919063ffffffff16565b50614cb4565b60ff8111614be357614bc6601860058460ff16901b1784614cdb90919063ffffffff16565b50614bdd81600185614cfb9092919063ffffffff16565b50614cb3565b61ffff8111614c2657614c09601960058460ff16901b1784614cdb90919063ffffffff16565b50614c2081600285614cfb9092919063ffffffff16565b50614cb2565b63ffffffff8111614c6b57614c4e601a60058460ff16901b1784614cdb90919063ffffffff16565b50614c6581600485614cfb9092919063ffffffff16565b50614cb1565b67ffffffffffffffff8111614cb057614c97601b60058460ff16901b1784614cdb90919063ffffffff16565b50614cae81600885614cfb9092919063ffffffff16565b505b5b5b5b5b505050565b614cc1614fb2565b614cd383846000015151848551614d1d565b905092915050565b614ce3614fb2565b614cf38384600001515184614dd6565b905092915050565b614d03614fb2565b614d14848560000151518585614e24565b90509392505050565b614d25614fb2565b8251821115614d3357600080fd5b84602001518285011115614d5e57614d5d856002614d578860200151888701614e85565b02614ea1565b5b600080865180518760208301019350808887011115614d7d5787860182525b60208701925050505b60208410614da95780518252602082019150602081019050602084039350614d86565b60006001856020036101000a03905080198251168184511681811785525050879350505050949350505050565b614dde614fb2565b83602001518310614dfb57614dfa846002866020015102614ea1565b5b8351805160208583010184815381861415614e17576001820183525b5050508390509392505050565b614e2c614fb2565b84602001518483011115614e4a57614e4985600286850102614ea1565b5b60006001836101000a0390508551838682010185831982511617815281518588011115614e775784870182525b505085915050949350505050565b600081831115614e9757829050614e9b565b8190505b92915050565b606082600001519050614eb48383614b20565b50614ebf8382614cb9565b50505050565b828054600181600116156101000203166002900490600052602060002090601f016020900481019282601f10614f0657805160ff1916838001178555614f34565b82800160010185558215614f34579182015b82811115614f33578251825591602001919060010190614f18565b5b509050614f419190614fcc565b5090565b6040518060a0016040528060008019168152602001600073ffffffffffffffffffffffffffffffffffffffff16815260200160007bffffffffffffffffffffffffffffffffffffffffffffffffffffffff1916815260200160008152602001614fac614fb2565b81525090565b604051806040016040528060608152602001600081525090565b614fee91905b80821115614fea576000816000905550600101614fd2565b5090565b9056fe4f776e61626c653a206e6577206f776e657220697320746865207a65726f2061646472657373756e61626c6520746f207472616e73666572416e6443616c6c20746f206f7261636c65736f727279207468697320746f6b656e206973206e6f7420617661696c61626c65536f7272792074686973207472616e73616374696f6e20646f65736e74206578697374416d6f756e74206973206d6f7265207468616e20617661696c61626c652065786368616e67652062616c616e6365536f75726365206d75737420626520746865206f7261636c65206f66207468652072657175657374536f7272792074686973207472616e73616374696f6e20686173206265656e20646f6e6520616c7265616479a26469706673582212205a36ec341533da25f0b8cbcbe19c249968c1ec4ce69cd0a05b25b3ef8d3a45fe64736f6c6343000606003353544f524d20555344204649415420544f2043525950544f2045584348414e4745",
  "immutableReferences": {},
  "source": "pragma solidity ^0.6.0;\r\nimport \"@openzeppelin/contracts/token/ERC20/IERC20.sol\";\r\nimport \"@openzeppelin/contracts/access/Ownable.sol\";\r\nimport \"@chainlink/contracts/src/v0.6/ChainlinkClient.sol\";\r\nimport \"@chainlink/contracts/src/v0.6/interfaces/AggregatorV3Interface.sol\";\r\n\r\n\r\n\r\ncontract StormSwap is ChainlinkClient , Ownable{\r\n    \r\n    //owner\r\n\r\n    address public swapOwner;\r\n\r\n    //variables for api \r\n    /* variables for order id*/\r\n    string public orderurl; \r\n    string public payouturl;\r\n    string public NGNrateurl;\r\n    address public oracle;\r\n    bytes32 public tran_jobId;\r\n    bytes32 public NGN_jobId;\r\n    uint256 public fee;\r\n    \r\n    /*variables for price order id*/\r\n    \r\n    uint256 public currentNGN_rate;\r\n    \r\n    /* tracking variables */\r\n    uint256 public point_level;\r\n    \r\n    string public name = \"STORM USD FIAT TO CRYPTO EXCHANGE\";\r\n    IERC20 public swarmNGN; // the storm naira\r\n    address public swarmNGN_add;\r\n    struct Transaction {\r\n        uint256 id;\r\n        string Transaction_id;\r\n        address Transaction_sender;\r\n        address token;\r\n        uint256 amount;\r\n        bool confirmed;\r\n        string message;\r\n    }\r\n    struct Token{\r\n        address token_add;\r\n        bool allowed;\r\n        uint256 price;\r\n    }\r\n    \r\n    \r\n    /*event TransactionConfirmed(\r\n        string Transaction_id,\r\n        address Transaction_sender,\r\n        address token,\r\n        uint256 amount,\r\n        string message\r\n    );*/\r\n    \r\n    event Transactionfailed(\r\n        string Transaction_id,\r\n        address Transaction_sender,\r\n        address token,\r\n        uint256 amount,\r\n        string message\r\n    );\r\n    \r\n    mapping(string => Transaction) public allTransactions; // mapping of all completed allTransactions true is completed false is not \r\n    uint256 public countAllTransactions = 0;//a count of all allTransactions\r\n    mapping(uint256 => string) public allTransactionID;\r\n    \r\n    bytes32 lastrequestID;\r\n    bytes32  lastrequestNGNID;\r\n    \r\n    mapping(address => address) public tokenPriceFeedMapping;\r\n    mapping(address => Token) public allowedTokens;// the  bool would always be true when created\r\n    mapping(uint256 => address) public allowedTokensIndexForLooop;\r\n    uint256 public countAllowedTokens = 0;\r\n    uint256 public countTokenPriceFeedMapping = 0;\r\n    \r\n    constructor(\r\n        address _swarmNGN, \r\n        string memory  _orderurl,\r\n        string memory _rateurl,\r\n        address _oracle,\r\n        string memory _tran_jobId,\r\n        string memory _NGN_jobId\r\n        //uint256 _fee\r\n    ) public{\r\n        setPublicChainlinkToken();\r\n        swarmNGN = IERC20(_swarmNGN);\r\n        swarmNGN_add = _swarmNGN;\r\n        orderurl = _orderurl; \r\n        NGNrateurl = _rateurl;\r\n        oracle = _oracle;\r\n        tran_jobId = stringToBytes32(_tran_jobId);\r\n        NGN_jobId = stringToBytes32(_NGN_jobId);\r\n        fee = 0.1 * 10 ** 18; // 0.1 LINK ;\r\n        swapOwner = msg.sender;\r\n        addAllowedTokens(_swarmNGN);\r\n        \r\n        //call the naira rate when deployed\r\n        //lastrequestNGNID = requestNGNRate();\r\n    }\r\n    \r\n    //update API PARAMETERS\r\n    function updateAPI_para(\r\n        string memory  _orderurl,\r\n        string memory _rateurl,\r\n        address _oracle,\r\n        string memory _tran_jobId,\r\n        string memory _NGN_jobId,\r\n        uint256 _fee\r\n    ) public onlyOwner{\r\n        orderurl = _orderurl; \r\n        NGNrateurl = _rateurl;\r\n        oracle = _oracle;\r\n        tran_jobId = stringToBytes32(_tran_jobId);\r\n        NGN_jobId = stringToBytes32(_NGN_jobId);\r\n        fee = _fee; // 0.1 LINK ;\r\n    }\r\n    \r\n    \r\n    \r\n    \r\n    \r\n    \r\n    //function to addTokens\r\n    function addAllowedTokens(address token) public onlyOwner {\r\n        if(!allowedTokens[token].allowed){\r\n            allowedTokens[token] = Token(token, true, 0);\r\n            countAllowedTokens++;\r\n            allowedTokensIndexForLooop[countAllowedTokens]=token;\r\n        }\r\n    }\r\n    //function to add priceFeedAddress\r\n    function setPriceFeedContract(address token, address priceFeed)\r\n        public\r\n        onlyOwner\r\n    {\r\n        tokenPriceFeedMapping[token] = priceFeed;\r\n    }\r\n    \r\n    //function to send tokens\r\n    function sendToken(string memory orderID, address _token, uint256 _amount) public {\r\n        \r\n        point_level=5;\r\n        \r\n        //require the amount to me more than zero \r\n        //require(_amount > 0, \"amount cannot be 0\");\r\n        if(_amount > 0){\r\n        //require the amount to be more than available balance of exchange\r\n            //require(_amount < IERC20(_token).balanceOf(address(this)),\"Amount is more than available\");\r\n            if(_amount < IERC20(_token).balanceOf(address(this))){\r\n            //check token is available\r\n                if(allowedTokens[_token].allowed){\r\n                    point_level=6;\r\n                    //check if Transaction as already been confirmed\r\n                    \r\n                    if(!allTransactions[orderID].confirmed){\r\n                        point_level=7;\r\n                        //if the Transaction has been confirmed\r\n                        //send amount\r\n                        if(IERC20(_token).transfer(allTransactions[orderID].Transaction_sender,_amount)){\r\n                        //update balance;\r\n                        //update Transaction\r\n                        allTransactions[orderID].confirmed = true;\r\n                        //emit TransactionConfirmed(orderID,allTransactions[orderID].Transaction_sender,_token,_amount,'The transaction was successful');\r\n                        allTransactions[orderID].message = 'The transaction was successful';\r\n                        }else{\r\n                            allTransactions[orderID].message = 'The transaction was unsuccessful';\r\n                        } \r\n                    }else{\r\n                       //emit Transactionfailed(orderID,allTransactions[orderID].Transaction_sender,_token,_amount,'Sorry this transaction has been done already'); \r\n                       allTransactions[orderID].message = \"Sorry this transaction has been done already\";\r\n                    }\r\n                }else{\r\n                    //emit Transactionfailed(orderID,allTransactions[orderID].Transaction_sender,_token,_amount,'sorry this token is not available');\r\n                    allTransactions[orderID].message= \"sorry this token is not available\";\r\n                }\r\n            }else{\r\n               allTransactions[orderID].message=\"Amount is more than available exchange balance\"; \r\n            }\r\n        }else{\r\n            allTransactions[orderID].message=\"Amount Cannot be zero\";\r\n        }\r\n    }\r\n    \r\n    //function to collect token \r\n    function collectToken() public{\r\n    \r\n        \r\n    }\r\n    \r\n    \r\n    \r\n    \r\n    //Buy Token FUNCTIONS\r\n    function buyToken(uint256 _amount, address _token, string memory orderID) public{\r\n        \r\n        //create  transactions \r\n        if(!allTransactions[orderID].confirmed){\r\n            countAllTransactions++;\r\n            allTransactions[orderID] = Transaction(countAllTransactions, orderID, msg.sender,_token , _amount, false,'The transaction is being verify'); \r\n            allTransactionID[countAllTransactions] = orderID;\r\n            point_level = 1;\r\n            lastrequestID = requestStatus(orderID);\r\n                \r\n        }else{\r\n               //emit Transactionfailed(orderID,msg.sender,_token,_amount,'Sorry this transaction has been done already'); \r\n               allTransactions[orderID].message =\"Sorry this transaction has been done already\";\r\n        }\r\n        \r\n        \r\n        //lastrequestNGNID = requestNGNRate();\r\n        \r\n        \r\n    } \r\n    \r\n    \r\n    \r\n    \r\n    \r\n    \r\n    \r\n    /**** THE FUNCTIONS TO ACCESS CHAINLINK API ***/\r\n    \r\n    \r\n  \r\n    function requestStatus(string memory _orderid) public returns (bytes32 requestId) \r\n    {\r\n        Chainlink.Request memory req = buildChainlinkRequest(tran_jobId, address(this), this.fulfill.selector);\r\n        \r\n        //string memory baseurl = \"https://chainlink21-pay-api.herokuapp.com/check/order/\";\r\n        string memory full_para;\r\n        //full_para = concatenate(baseurl,_orderid);\r\n        full_para = concatenate(orderurl,_orderid);\r\n        req.add(\"get\",full_para);\r\n        req.add(\"path\", \"status_code\");\r\n        \r\n        // Multiply the result by 1000000000000000000 to remove decimals\r\n        //int timesAmount = 10**18;\r\n        //req.addInt(\"times\", timesAmount);\r\n        \r\n        // Sends the request\r\n        point_level = 2;\r\n        return sendChainlinkRequestTo(oracle, req, fee);\r\n    }\r\n    \r\n    string public test_order_id ; //remove aftertesting\r\n    \r\n    function fulfill(bytes32 _requestId, bytes32 _status_code) public recordChainlinkFulfillment(_requestId)\r\n    {\r\n        test_order_id =  bytes32ToString(_status_code);\r\n        string memory status_code = bytes32ToString(_status_code);\r\n        point_level=2;\r\n        address trans_token_add = allTransactions[status_code].token;\r\n        uint256 sendingAmount = 0;\r\n        point_level=2;\r\n        uint256 trans_amount = allTransactions[status_code].amount;\r\n        if(comparestrings(status_code,\"0\")){\r\n            \r\n            emit Transactionfailed(status_code,msg.sender,trans_token_add , trans_amount,'Sorry this transaction doesnt exist');\r\n            \r\n        }else{\r\n            point_level=3;\r\n          if(trans_token_add == swarmNGN_add){\r\n                point_level=4;\r\n                 // The rate gotten is USD/NGN\r\n                sendingAmount = (trans_amount  * currentNGN_rate) / 10 ** 18;\r\n                sendToken(status_code,trans_token_add,sendingAmount);\r\n               \r\n          }else{\r\n                point_level=4;\r\n                //The rate assumed to be ***/USDC \r\n                uint256 _tokenusdrate = 0 ;\r\n                _tokenusdrate = getTokenUSDPrice(trans_token_add); \r\n                allowedTokens[trans_token_add].price = _tokenusdrate;\r\n                sendingAmount = (trans_amount * 10 ** 18) /  _tokenusdrate;\r\n                sendToken(status_code,trans_token_add,sendingAmount);\r\n          }\r\n        }\r\n    }\r\n    \r\n\r\n     function requestNGNRate() public returns (bytes32 requestId) \r\n    {\r\n        Chainlink.Request memory req = buildChainlinkRequest(NGN_jobId, address(this), this.fulfillRate.selector);\r\n        \r\n        //string memory base_url = \"https://chainlink21-pay-api.herokuapp.com/check/naira/\";\r\n        req.add(\"get\",NGNrateurl);\r\n        req.add(\"path\", \"NGN\");\r\n        \r\n        // Multiply the result by 1000000000000000000 to remove decimals\r\n        int timesAmount = 10**18;\r\n        req.addInt(\"times\", timesAmount);\r\n        \r\n        // Sends the request\r\n        return sendChainlinkRequestTo(oracle, req, fee);\r\n    }\r\n    \r\n   \r\n    \r\n    /**\r\n     * Receive the response in the form of uint256\r\n     */ \r\n    function fulfillRate(bytes32 _requestId, uint256 _rateNGN) public recordChainlinkFulfillment(_requestId)\r\n    {   \r\n        \r\n        //assign NGN rate to current NGN\r\n        currentNGN_rate = _rateNGN;\r\n        allowedTokens[swarmNGN_add].price = _rateNGN;\r\n        \r\n        \r\n    }\r\n    \r\n    /** return the rate **/\r\n    function getTokenUSDPrice(address token) public view returns (uint256) {\r\n        address priceFeedAddress = tokenPriceFeedMapping[token];\r\n        AggregatorV3Interface priceFeed = AggregatorV3Interface(\r\n            priceFeedAddress\r\n        );\r\n        (\r\n            uint80 roundID,\r\n            int256 price,\r\n            uint256 startedAt,\r\n            uint256 timeStamp,\r\n            uint80 answeredInRound\r\n        ) = priceFeed.latestRoundData();\r\n        uint256 tk_price = uint256(price) * 10**10;\r\n        return tk_price;\r\n        \r\n        /*allowedTokens[token].price =  uint256(price) * 10**10;\r\n        return allowedTokens[token].price;*/\r\n    }\r\n    \r\n    \r\n    \r\n    \r\n    // Utility functions for strings \r\n    function bytes32ToString(bytes32 _bytes32) public pure returns (string memory) {\r\n        uint8 i = 0;\r\n        while(i < 32 && _bytes32[i] != 0) {\r\n            i++;\r\n        }\r\n        bytes memory bytesArray = new bytes(i);\r\n        for (i = 0; i < 32 && _bytes32[i] != 0; i++) {\r\n            bytesArray[i] = _bytes32[i];\r\n        }\r\n        return string(bytesArray);\r\n    }\r\n\r\n    function stringToBytes32(string memory source) public pure returns (bytes32 result) {\r\n        bytes memory tempEmptyStringTest = bytes(source);\r\n        if (tempEmptyStringTest.length == 0) {\r\n            return 0x0;\r\n        }\r\n        assembly {\r\n            result := mload(add(source, 32))\r\n        }\r\n    }\r\n    \r\n    //function to conctate strings\r\n    function concatenate(string memory a , string memory b)internal pure returns(string memory){\r\n       \r\n      return string(abi.encodePacked(a,b));\r\n        \r\n    }\r\n    //compare strings \r\n    function comparestrings(string memory a , string memory b) public pure returns (bool){\r\n        if(keccak256(bytes(a)) == keccak256(bytes(b))){\r\n            return true;\r\n        }else{\r\n            return false;\r\n        }\r\n    }\r\n\r\n    \r\n    \r\n    \r\n    \r\n    \r\n    \r\n    \r\n\r\n    \r\n    /**\r\n     * Withdraw LINK from this contract\r\n     * \r\n     * NOTE: DO NOT USE THIS IN PRODUCTION AS IT CAN BE CALLED BY ANY ADDRESS.\r\n     * THIS IS PURELY FOR EXAMPLE PURPOSES ONLY.\r\n     */\r\n    function withdrawLink() external onlyOwner{\r\n        LinkTokenInterface linkToken = LinkTokenInterface(chainlinkTokenAddress());\r\n        require(linkToken.transfer(msg.sender, linkToken.balanceOf(address(this))), \"Unable to transfer\");\r\n    }\r\n    function withdrawToken(address _token) external onlyOwner {\r\n        require(IERC20(_token).transfer(msg.sender, IERC20(_token).balanceOf(address(this))),\"unable to transfer\");\r\n    }\r\n    \r\n}\r\n\r\n",
  "sourcePath": "C:/Users/Aderounmu/Desktop/development/Eth_Blockchain/ChainLink Hackathon/application3/src/contracts/StormSwap.sol",
  "compiler": {
    "name": "solc",
    "version": "0.6.6+commit.6c089d02.Emscripten.clang"
  },
  "schemaVersion": "3.3.3",
  "updatedAt": "2021-04-11T21:38:26.625Z",
  "networkType": "ethereum",
  "devdoc": {
    "methods": {
      "owner()": {
        "details": "Returns the address of the current owner."
      },
      "renounceOwnership()": {
        "details": "Leaves the contract without owner. It will not be possible to call `onlyOwner` functions anymore. Can only be called by the current owner.     * NOTE: Renouncing ownership will leave the contract without an owner, thereby removing any functionality that is only available to the owner."
      },
      "transferOwnership(address)": {
        "details": "Transfers ownership of the contract to a new account (`newOwner`). Can only be called by the current owner."
      }
    }
  },
  "userdoc": {
    "methods": {
      "fulfillRate(bytes32,uint256)": {
        "notice": "Receive the response in the form of uint256"
      },
      "getTokenUSDPrice(address)": {
        "notice": "return the rate *"
      },
      "requestStatus(string)": {
        "notice": "** THE FUNCTIONS TO ACCESS CHAINLINK API **"
      },
      "withdrawLink()": {
        "notice": "Withdraw LINK from this contract \r NOTE: DO NOT USE THIS IN PRODUCTION AS IT CAN BE CALLED BY ANY ADDRESS. THIS IS PURELY FOR EXAMPLE PURPOSES ONLY."
      }
    }
  }
}